:020000040800F2
:100000007007002089010008991D0008911D000853
:10001000951D0008AD030008591F000800000000EE
:100020000000000000000000000000007D1E00082D
:10003000BD030008000000009D1D0008811E00088F
:10004000A3010008A3010008A3010008A301000800
:10005000A3010008A3010008A3010008A3010008F0
:10006000A3010008A3010008C1030008B1030008B0
:10007000A3010008A3010008A3010008A3010008D0
:10008000A3010008A3010008A3010008A3010008C0
:10009000A3010008A3010008A3010008A3010008B0
:1000A000A3010008A3010008A3010008A3010008A0
:1000B000A3010008A3010008A3010008A301000890
:1000C000A3010008A3010008A3010008A301000880
:1000D000A30100084D1F0008A3010008A3010008A8
:1000E000A3010008A3010008A301000800F002F822
:1000F00000F03AF80AA090E8000C82448344AAF188
:100100000107DA4501D100F02FF8AFF2090EBAE885
:100110000F0013F0010F18BFFB1A43F0010318473B
:100120006822000088220000103A24BF78C878C1F5
:10013000FAD8520724BF30C830C144BF04680C60ED
:10014000704700000023002400250026103A28BF35
:1001500078C1FBD8520728BF30C148BF0B60704739
:100160001FB51FBD10B510BD00F050F81146FFF7C8
:10017000F7FF01F0F3FE00F06EF803B4FFF7F2FFB3
:1001800003BC00F075F800000948804709480047A3
:10019000FEE7FEE7FEE7FEE7FEE7FEE7FEE7FEE737
:1001A000FEE7FEE704480549054A064B7047000094
:1001B000851E0008ED000008700100207007002077
:1001C000700300207003002010B5431C02E010F8FB
:1001D000011B71B18107FAD14FF0013202C88C1AAC
:1001E0008C4314EAC211F9D0C01A0A0603D0C01E0B
:1001F00010BDC01A10BD0A0401D0801E10BD090236
:10020000FCD0401E10BD704770477047754600F027
:100210002BF8AE4605006946534620F00700854698
:1002200018B020B5FFF7BEFFBDE820404FF0000634
:100230004FF000074FF000084FF0000BAC46ACE861
:10024000C009ACE8C009ACE8C009ACE8C00921F0BD
:1002500007018D46704710B50446AFF30080204675
:10026000BDE81040FFF789BF00487047100000202C
:1002700001491820ABBEFEE72600020070470000CF
:100280000146406A826A12F0500F03D0006A026B86
:10029000084610470168826A42F4007282628968E7
:1002A00001F46021B1F5602F01D1017B11B100F0A3
:1002B00057B900BF816A21F480718162816AC904E3
:1002C00048BF00F04DB9816A41F00101816200F040
:1002D00047B90000406A816A41F040018162C16A09
:1002E00041F00401C16200F03FB90000406A00F033
:1002F00039B90000B0B582B00446002001902168F1
:100300008A68D2074FD1886840F00100886040F2C7
:100310000C00C2F2000000684DF68361C4F21B318C
:10032000A0FB0101880C01900198A0B1019801384F
:100330000190019878B1019801380190019850B16D
:10034000019801380190019828B101980138019075
:1003500001980028EAD100F0ADFD21688968C9073D
:100360001CD1054603E000BF8068C0071AD100F029
:10037000A1FD411B20680329F6D38168C907F3D189
:10038000A06A40F01000A062E06A40F00100E06264
:10039000002084F82400012002B0B0BD002002B08B
:1003A000B0BD00BF002002B0B0BD0000FEE70000FD
:1003B00040F2E400C2F2000000F0DEBA7047000034
:1003C000102000F04FBC0000EFF3108072B600BFA9
:1003D000FEE7000010B581B00022009290F82420C2
:1003E000012A03D10221084601B010BD4B68012249
:1003F000062B80F8242017D8D0F800C003EB830325
:100400005A1F1F23DCF834E003FA02F40B682EEACB
:10041000040403FA02F22243CCF83420092B03EB44
:10042000430219D936E000BFD0F800C00C2B03EB13
:1004300083021DD8233A1F23DCF830E003FA02F4CC
:100440000B682EEA040403FA02F22243CCF83020AF
:10045000092B03EB43021DD8DCF810300724896810
:100460009440A34391401943CCF81010002130E090
:10047000413A1F23DCF82CE003FA02F40B682EEA61
:10048000040403FA02F22243CCF82C20092B03EBDC
:100490004302E1D9DCF80CE01E3A07248968944055
:1004A0002EEA0404914023F001022143102ACCF8E3
:1004B0000C100DD142F20841C4F20101A1F1080271
:1004C00094450DD0816A41F020018162012100E054
:1004D0000021002280F82420084601B010BD00BF92
:1004E0000A68120230D40A68102B42F400020A6033
:1004F0002CD140F20C01C2F2000109684DF6836272
:10050000C4F21B32A1FB0212910C01EB81014900E4
:1005100000910099E1B10099013900910099C9B1A8
:100520000099013900910099B1B100990139009108
:10053000009999B1009901390091009900294FF073
:100540000001E8D1C5E700BF0021C2E70021C0E7F4
:100550000021BEE70021BCE70021BAE70021B8E78F
:10056000704700007047000070470000B0B50028D9
:1005700000F0A8800446806A20B121688868C0071E
:100580000BD114E00020E06284F82400204600F043
:100590009BF821688868C00709D0886820F00100AE
:1005A000886000F087FC21688A68D20726D1A06A9B
:1005B000C0063AD4A06A41F2021290430230A0620F
:1005C000E069D4E9013240EA030C531EB3FA83F325
:1005D0005D091346B2F5807F18BF2B02207D257B75
:1005E00001284CEA450030D135B3A56A45F0200515
:1005F000A562E56A45F00105E56226E0054602E0F0
:100600008868C007D3D000F055FC401B2168032840
:10061000F6D38868C007F3D0A06A40F01000A0624B
:10062000E06A40F00100E062A06AA06A40F01000B9
:10063000A0620120B0BD00BFD4F818C04EF600057E
:10064000CFF6FF7505EB4C352B434D68B2F5807F37
:1006500025F4694543EA05034B608B684FF2FD754D
:10066000CFF6E17503EA050343EA00038B6001D08E
:10067000012A07D122690023CFF6F07303EB02525F
:1006800001E000BF0022CB6A23F470031A43CA6260
:10069000896840F6FE62CFF61F721140814207D191
:1006A0000020E062A16A012262F30101A162B0BDF3
:1006B000A06A40F0100020F00200A062E06A40F062
:1006C0000100E0620120B0BD70B586B0044640F67E
:1006D0000000C4F20100216800F5E05200269142BA
:1006E0000596049602D006B070BD00BF41F2180115
:1006F000C4F202010A6842F400720A600A6802F455
:1007000000720192019A0A6842F004020A600968C4
:1007100001F0040101910199022102910321039149
:1007200002A900F0ABFA40F2E4050820C2F200058D
:10073000C4F202004FF48072C5E9000605F1100012
:1007400080214FF480634FF0200C80E80C10284685
:10075000C5E90261EE6100F0DDF9002818BFFFF77E
:1007600033FE25626C6206B070BD000070B51546A0
:100770000446006842F60002C4F2010290420E46AE
:1007800005D042F20041C4F20101884209D142F28F
:100790000440C4F20100006810F4702F1CBF012057
:1007A00070BD94F82400012804BF022070BD012010
:1007B00084F824002046FFF79DFD18B1002184F83D
:1007C000241070BD42F204402168A26AC4F2010004
:1007D00040F601739A4300F57F7302F580729942E7
:1007E000A26243D0A06A20F48010A062486840054D
:1007F00004D5A06A012262F30D30A062A26A002033
:10080000D2044FF0000244BFE26A22F00602E26224
:1008100084F82400206A40F28122C0F6000240F2EF
:10082000ED2340F2D52C00F1280EC0F60003C0F6EF
:10083000000C8EE80C106FF002020A608A682B46EA
:1008400042F480728A604C31324600F09FF9206891
:10085000816801F460228168B2F5602F0CBF41F419
:10086000A00141F480118160002070BD026812F483
:10087000702FB7D0A26A42F48012A26200684005CD
:10088000BCD5B6E7014690F82100022816D10868C9
:10089000D1E90FC3026822F00E020260026822F062
:1008A00001020260012000FA03F2CCF8042081F872
:1008B00021000020002281F8202070470420886356
:1008C0000120002281F820207047000080B590F8B8
:1008D0002110022924D10268116821F00E01116053
:1008E0002F211368C4F202018A4240F20401C4F2CB
:1008F000020123F00103136016DD3023C4F202036A
:100900009A421DD04423C4F202039A421CD05823B9
:10091000C4F202039A421DD14FF4803322E000BF9B
:1009200004218163012080BD0823C4F202039A429E
:100930000ED01C23C4F202039A420BD1102311E003
:100940004FF480730EE000BF4FF480530AE000BF05
:10095000012307E001F1680C4FF08073624508BF86
:100960004FF480130B60416B4FF48072028401B12D
:100970008847002080BD000010B5D0E90FCE016887
:10098000DCF800300A6823FA0EF35C072AD512F06F
:10099000040427D00A68920603D40A6822F00402ED
:1009A0000A602F22C4F20202914240F20402C4F211
:1009B000020259DD3023C4F20203994270D044236D
:1009C000C4F20203994271D05823C4F2020399423F
:1009D00078D14FF480231360C16A002940F09780DA
:1009E0006EE000BF9C0727D512F0020424D00A68ED
:1009F000920606D40A6822F00A020A60012280F8F0
:100A000021202F22C4F20202914240F20402C4F2D9
:100A1000020239DD3023C4F2020399425ED044233E
:100A2000C4F2020399425DD05823C4F202039942F2
:100A30005ED14FF4003363E01B0741D512F008028A
:100A400008BF10BD0A6822F00E020A60012101FAF7
:100A50000EF2CCF804208163016B4FF48072002900
:100A6000028454D12CE000BF0823C4F2020399424F
:100A700022D01C23C4F20203994223D140231360E5
:100A8000C16A002943D11BE00823C4F20203994242
:100A90002CD01C23C4F20203994229D120232FE039
:100AA0004FF480631360C16A89BB09E04FF480434F
:100AB0001360C16A59BB03E004231360C16A31BBF0
:100AC00010BD00BF02F168044FF08063A14208BF6F
:100AD0004FF480031360C16AC9B9F1E74FF40073A2
:100AE0000EE000BF4FF400530AE000BF022307E00E
:100AF00002F168044FF00073A14208BF4FF40013E5
:100B00001360816A0022002980F82020D8D0BDE837
:100B100010400847002804BF012070472DE9F0412C
:100B200001684FF6F872CBF6FD724CF6CD430A44DD
:100B3000CCF6CC43A2FB03236FF0030707EA930331
:100B40000027C4F2020700F1040E00F11008C0E90A
:100B50000F739EE8045098E870010B6843F6F07735
:100B6000BB431A4342EA0C0242EA0E0222432A43E2
:100B7000324342EA08020A6000214FF48072816326
:100B80000284BDE8F041084670470000F0B590F8D7
:100B900020C0BCF1010F32D090F821C04FF0010EFF
:100BA000BCF1010F80F820E026D14FF0020C80F854
:100BB00021C04FF0000CC0F838C0D0E900C4C56AAD
:100BC000C66BDCF80070102C27F00107CCF8007021
:100BD000006C0EFA00F070600846CCF8043004BFD8
:100BE00010460A46CCF80800CCF80C20DCF80000CF
:100BF00045B140F00E000DE0002180F820100220E9
:100C0000F0BD00BF20F00400CCF80000DCF80000CC
:100C100040F00A00CCF80000DCF8000040F00100D1
:100C2000CCF800000020F0BDB0B5044600F042F959
:100C3000054640F20400C2F200000078611C18BFB3
:100C4000044400BF00F036F9401BA042FAD3B0BD07
:100C5000102818BF704740F27000C2F20000012156
:100C60000170704740F21441C4F201010A68024267
:100C700014BF08607047FFF7EBBF00002DE9F04F8D
:100C800082B00E68002E00F0038140F20C4C41F25D
:100C900000424FF6FF7EC4F2010CC4F201020427A9
:100CA00000240123C1F2100E4FF0000A4FF000099A
:100CB000904208BF0327009745E000BF012704F0DA
:100CC0000C030F229A402BEA020207FA03F34FEAC1
:100CD0009A051A4346F82520D1F804B040F20045A1
:100CE000C4F201055FEACB322A6854BF22EA080247
:100CF00042EA08022A606A685FEA8B3354BF22EA3C
:100D0000080242EA08026A605FEACB23AA6854BF7D
:100D100022EA080242EA08025FEA8B23AA60DCF8B2
:100D200000204FF0010354BF22EA080242EA080201
:100D3000CCF800200E680AF1010A36FA0AF204F132
:100D4000040400F0A58003FA0AF816EA080FF1D0AF
:100D50004E68764512DC122E56D8DFE806F0350BC9
:100D60004549555555555555555555555555554D57
:100D7000510000BFD1F80C9046E000BF4FF6FF7263
:100D8000C1F2210296420FDC0022C1F2110296420A
:100D90001AD00022C1F21202964215D00022C1F2EE
:100DA0002102964210D02FE00022C1F22202964288
:100DB0000AD00022C1F23102964205D00022C1F2CF
:100DC0003202964220D100BF8A684AB1012A14BF7C
:100DD000C0F81480C0F810804FF0080914E000BF7C
:100DE0004FF0040910E000BFCA6802F108090BE0E7
:100DF0004FF0000908E000BFCA6802F1040903E0EF
:100E0000CA6802F10C0900BF22460646BAF1080F73
:100E100024BF203A043637680F25954027EA050598
:100E200009FA02F22A433260CA79D2067FF582AF0C
:100E300041F21803C4F202031A6842F001021A6078
:100E40001A6802F001020192019A40F20042C4F2D3
:100E50000102A2F57E762AF0030256F802B040F6AF
:100E60000002C4F20102904210D040F60042C4F2E7
:100E7000010290423FF422AF41F20002C4F20102AB
:100E8000009F904208BF022719E700BF002716E71E
:100E900002B0BDE8F08F0000C26802EA010391438E
:100EA00041EA034101617047002A08BF090401615A
:100EB0007047000040F26C10C2F2000000687047FA
:100EC00040F2040040F26C11C2F20000C2F20001D4
:100ED00000780A68104408607047000080B542F24C
:100EE0000000C4F20200016841F01001016003201B
:100EF00000F08EF80F2000F005F800F027F8002031
:100F000080BD000070B540F20406C2F2000640F257
:100F10000C013278C2F200014FF47A730968B3FB16
:100F2000F2F20446B1FBF2F1084600F0E9FB0F2CA7
:100F30004FF0010508D838B94FF0FF3021460022A4
:100F4000002500F039F87460284670BD82B041F287
:100F50001800C4F202000168022241F001010160A0
:100F6000016801F0010101910199416841F080514E
:100F70004160406800F08050009000980420C4F266
:100F80000100016862F31A61016002B0704700005D
:100F9000002848BF7047C1B200F01F00012202FACA
:100FA00000F04EF20012CEF2000242EAD10121F02E
:100FB000030108607047000010B54EF60C5CCEF2DD
:100FC000000CDCF80030C3F3022E8EF00704042C72
:100FD00028BF0424BEF103034FF0FF3E0EFA04F4D1
:100FE00038BF0023A14399400EFA03F39A431143FB
:100FF00000F00F0200F160430901043A03F5644375
:101000006244002848BF02F10C03197010BD0000B3
:101010004EF60C51CEF200010A684FF6FF031A405B
:1010200060F30A2242F0806040F0FD700860704773
:101030002DE9F04182B00446007841F21C06C00759
:10104000C4F202064AD0306810F0805808D13068E7
:1010500040F080503060306800F08050019001987E
:1010600047F20007C4F200073868C00512D4386898
:1010700040F480703860FFF71DFF05463868C005F2
:1010800008D4FFF717FF401B6428F7D9032002B0EC
:10109000BDE8F081706810F4407012D0616801F40E
:1010A000407188420DD0706840F24042C4F2422242
:1010B000012320F4407113600023C00713607160A6
:1010C0002AD17068616820F440700843B8F1000FBD
:1010D000706003D1306820F0805030602068810754
:1010E00007D556F8181CA26821F44041114346F870
:1010F000181CC00604D4002002B0BDE8F08100BF77
:1011000056F8180CE16820F48000084346F8180CE3
:10111000002002B0BDE8F081FFF7CCFE054641F2A9
:10112000883700BF70688007CBD4FFF7C3FE401B31
:10113000B8424FF00300F5D9EBE700002DE9F0438A
:1011400081B0002800F0858042F20008C4F2020855
:101150000446D8F800000D4600F0070088420CD283
:10116000D8F8000020F007002843C8F80000D8F89D
:10117000000000F00700A8426BD1206841F204098A
:101180008107C4F2020917D5410705D5D9F8001027
:1011900041F4E061C9F80010010705D5D9F8001045
:1011A00041F46051C9F80010D9F80010A26821F08C
:1011B000F0011143C9F80010C00741D1D8F8000070
:1011C00000F00700A8420CD9D8F8000020F0070072
:1011D0002843C8F80000D8F8000000F00700A84233
:1011E00037D12068410707D5D9F80010E26821F40B
:1011F000E0611143C9F80010000708D5D9F80000D4
:10120000216920F4605040EAC100C9F80000D9F813
:10121000002002F00C00082841F20020C0F27A0001
:1012200050D142F27633C2F38341C0F60003595CD9
:10123000D2033BD440F60010C0F23D00484341E0E9
:10124000606802280AD001282AD159F8041C8903B1
:1012500008D4012001B0BDE8F08300BF59F8041C98
:101260008901F6D5D9F8001021F003010843C9F827
:101270000000FFF71FFE064641F28837D9F800004C
:10128000616800F00C00B0EB810F97D0FFF712FE01
:10129000801BB842F2D9032001B0BDE8F08300BF43
:1012A00059F8041C8907D4D5DCE700BFD9F8002021
:1012B00042F25C33C2F34042C0F600039A5C4843FA
:1012C000B0FBF2F0D9F8001042F25E32C1F3031124
:1012D000C0F60002515C40F20C0220FA01F140F22B
:1012E0000800C2F200000068C2F200021160FFF7BD
:1012F00009FE002001B0BDE8F083000040F20C00C0
:1013000041F20401C2F20000C4F20201006809685F
:1013100042F26E32C1F30221C0F60002515CC840B5
:101320007047000040F20C0041F20401C2F20000DC
:10133000C4F202010068096842F26E32C1F3C221B0
:10134000C0F60002515CC840704700002DE9F04132
:1013500082B0002868D00446007841F20006C00739
:10136000C4F2020625D0706800F00C0004281BD0DF
:10137000706800F00C00082802D17068C00313D414
:101380006068002800F06881B0F5A02F00F07C8133
:10139000B0F5803F00F07C81306820F48030306010
:1013A000306820F4802076E13068800301D56068E1
:1013B000D0B32078800718D5706810F00C0F07D0D4
:1013C000706800F00C0008286ED17068C0036BD400
:1013D0003068800702D52069012825D1306861690D
:1013E00020F0F80040EAC1003060207800071FD4E8
:1013F0002078400732D4E56995B1706800F00C00A0
:10140000082840F08F80012D0ED07068216A00F40A
:1014100080328A4208D1616A00F47010884203D198
:10142000002002B0BDE8F081012002B0BDE8F081EB
:10143000A069002862D00020C4F242200121C0F837
:101440008014FFF737FD0546706A800700F18C8035
:10145000FFF730FD401B0228F6D92AE1F06910F0B1
:10146000805808D1F06940F08050F061F06900F0D8
:1014700080500090009847F20007C4F200073868D7
:10148000C00529D4386840F480703860FFF712FD39
:10149000054600BF3868C0051ED4FFF70BFD401B92
:1014A0006428F7D905E100BF2069002840F2000058
:1014B000C4F2422000F0828001210160FFF7FAFCB3
:1014C000054600BF306880073FF588AFFFF7F2FCA4
:1014D000401B0228F6D9ECE0E068002800F080808C
:1014E000052800F09780012800F09880306A20F0ED
:1014F00001003062306A20F0040092E00020C4F263
:1015000042200021C0F88014FFF7D4FC054600BF3C
:10151000706A80077FF56CAFFFF7CCFC401B022898
:10152000F6D9C6E00027C4F2422700203866FFF74C
:10153000C1FC022D05460BD13068800140F1BE8010
:10154000FFF7B8FC401B02284FF00300F4D968E70E
:10155000306880017FF564AFFFF7ACFC401B0228C8
:101560004FF00300F4D95CE740F20C00C2F2000037
:10157000006844F6D351C1F26201A0FB0101480AA0
:10158000019000BF00BF0198411E002801913FF467
:101590002FAF00BF0198411E002801913FF428AFF2
:1015A00000BF0198411E002801913FF421AF00BF08
:1015B0000198411E00280191E4D119E70021016042
:1015C000FFF778FC054600BF306880077FF50DAF58
:1015D000FFF770FC401B02284FF00300F4D920E70E
:1015E000306A20F001003062306A20F0040030627E
:1015F000FFF760FC054641F2883700BF306A80077C
:1016000020D5FFF757FC401BB8424FF00300F5D937
:1016100007E700BF306A40F004003062306A40F0F3
:1016200001003062FFF746FC054641F2883700BFF3
:10163000306A800706D4FFF73DFC401BB842F7D95B
:1016400037E000BFB8F1000F7FF4D5AEF06920F0AD
:101650008050F061CFE600BF306820F48030306009
:10166000306820F480203060FFF724FC054600BF7E
:10167000306880037FF59DAEFFF71CFC401B64289B
:101680004FF00300F4D9CCE6306840F4802030609D
:10169000306840F480303060FFF70CFC054600BF36
:1016A000306880033FF585AEFFF704FC401B6428DB
:1016B000F6D9032002B0BDE8F08100BF206AB0F582
:1016C000803F05D17168A26821F400311143716037
:1016D0007168626A21F4741111430843706001203B
:1016E0003866FFF7E7FB0446306880013FF598AEA7
:1016F000FFF7E0FB001B02284FF00300F4D990E64F
:10170000411E0020B0EB116F1CBF012070474EF24C
:101710001002CEF2000251604EF62351CEF20001CB
:10172000F0230B7007219060116070477047000034
:1017300070470000B0B582B0026805461068D368F3
:10174000546900F02F01202903F0200106D129B1AE
:10175000284602B0BDE8B04000F09CBB5FEA007CC8
:101760001EBF04F0010E03F4907414EB0E0453D169
:10177000296B012905D110F0100118BF13F01001D9
:1017800036D1010622D513F080011FD095F83D0017
:1017900021283FD1A868B0F5805F03D128690028CF
:1017A00000F0F880286A411C296200785060E88CBB
:1017B00001380104E8842DD1D06820F08000D06089
:1017C000D06840F04000D06002B0B0BD400621D5E6
:1017D00013F040001ED0D068202120F04000D060DF
:1017E000284685F83D1002B0BDE8B04000F0CEBA02
:1017F0000020019010680190506801900198506994
:10180000400611D4A88DE98DEB8D002B18BF8842BE
:1018100040F0A68002B0B0BDC40718BF13F48073B7
:101820002CD1430730D436E0A86B01684B689CB2DA
:10183000002CEFD0A98D8C42ECD2EB858369202B54
:1018400017D0D16821F48071D160516921F0010174
:101850005161516921F040015161202185F83E100C
:1018600000212963D16821F01001D160FFF70AF847
:10187000A98DE88D081A81B2284685E02B6C43F0CB
:1018800001032B64430706D5BEF1000F03D02B6C78
:1018900043F002032B64830706D5BEF1000F03D08B
:1018A0002B6C43F004032B64BCF1000F09D541EA13
:1018B0000E03B3FA83F35B0903D12B6C43F00803E7
:1018C0002B642B6C002BA5D010F0200018BF002932
:1018D00003D0284600F0DEFA2A685069296C00F02F
:1018E000400001F0080140182CD0D06820F490701E
:1018F000D060506920F001005061286B012803D1AD
:10190000D06820F01000D060202085F83E00002034
:101910002863506940061DD5506920F04000506191
:10192000A86BB8B141F68961C0F600014163FEF7CA
:10193000CDFF00283FF46EAFA86B416B02B0BDE84D
:10194000B04008472846FFF7F3FE0020286402B0A5
:10195000B0BD00BF284602B0BDE8B040FFF7E8BE0A
:10196000D368401A23F49073D360536981B223F093
:1019700001035361202385F83E3000232B63D36895
:10198000284623F01003D36002B0BDE8B040FFF753
:10199000CDBE00BF286A30F8021B6FF35F21516093
:1019A000286204E7002804BF0120704710B50446F0
:1019B00090F83D0028B9002084F83C00204600F053
:1019C00061F8242084F83D002068D4E90212C3683D
:1019D00023F40053C360036923F440531A430261A4
:1019E000D4E904231143C268194341F20C639A43BA
:1019F0001143C1604169A26921F44071114343F66A
:101A00000002C4F201029042416103D0FFF776FC6C
:101A100002E000BFFFF786FC62681921484391008D
:101A2000B0FBF1F048F21F51C5F2EB11A0FB01230E
:101A30005A094FF69C73C0F6FF7302FB0300322372
:101A400003EB0010A0FB0101F02303EA511320680F
:101A500003EB0212C1F3431111448160016921F4C7
:101A600090410161416921F02A014161C16841F45D
:101A70000051C16000202021206484F83D1084F8CA
:101A80003E1010BD70B586B040F60004C4F20104EB
:101A9000006804F5405100268842049602D006B042
:101AA00070BD00BF41F21800C4F20200016802AD2F
:101AB00041F480410160016801F480410191019984
:101AC000016841F0040101600068294600F004004B
:101AD000019001984FF400700290022003900320BF
:101AE00005902046FFF7CAF84FF48060CDE9020662
:101AF000204629460496FFF7C1F825200021002240
:101B0000FFF75AFA2520FFF743FA06B070BD000030
:101B1000034690F83E0020280AD100294FF001002A
:101B200018BF002A00D1704793F83C00012801D16A
:101B30000220704700201863996222219A85DA8575
:101B4000186483F83E10196883F83C00CA6842F4B0
:101B50008072CA604A6942F001024A61CA6842F072
:101B60002002CA607047000010B540F22811C2F28E
:101B7000000100680968884218BF10BD40F270007B
:101B8000C2F2000000F120042046002100F008F914
:101B900040F22810C2F2000021461222BDE8104097
:101BA000FFF7B6BF2DE9F041044690F83D0020282C
:101BB0000ED10D4600294FF0010000F08E80164630
:101BC000002A08BFBDE8F08194F83C00012803D149
:101BD0000220BDE8F08100BF012084F83C00002015
:101BE00020642120984684F83D00FFF763F9A6841D
:101BF000E684A1680646B1F5805F03D1206900281C
:101C000000F0A0802F460025002084F83C00E08CE6
:101C1000E0B118F101001BD0B8F1000F60D12068CD
:101C20000BE000BF35F8021B00276FF35F21416016
:101C3000E18C0139E184E18C51B3016809066DD56D
:101C4000002FEFD017F8011BF1E700BF20681FE05D
:101C5000206802E00168090609D40168090606D473
:101C6000016809065CBF01685FEA0161F2D51FB136
:101C700017F8011B05E000BF35F8021B00276FF3C2
:101C80005F214160E18C0139E184E18C0029E4D1DC
:101C9000016849061DD4B8F1000F3FD018F10101C9
:101CA0000ED10168490614D4016849065CBF016879
:101CB0005FEA41610DD401684906F2D509E000BF31
:101CC000FFF7F8F8811B2068414527D800684006D7
:101CD000F6D5202084F83D000020BDE8F08100BF4B
:101CE000206800BF0168090606D4FFF7E3F8811BEE
:101CF00020684145F6D911E017B117F8011B04E03F
:101D000035F8021B00276FF35F214160E18C013938
:101D1000E184E18C0029E5D1BAE700BFC16821F474
:101D2000D071C160416921F001014161202084F836
:101D30003D0084F83E00002084F83C000320BDE80C
:101D4000F08100BF00275FE7034690F83D002028A0
:101D50000AD100294FF0010018BF002A00D17047B6
:101D600093F83C00012801D102207047196200203D
:101D700021219A84DA84186483F83D10196883F865
:101D80003C00CA6842F08002CA6070477047000099
:101D9000FEE70000FEE70000FEE7000070470000DD
:101DA0002DE9F0410446017840F20000C2F2000043
:101DB000027840F270089142C2F2000858D1617C6A
:101DC000407881424FF000004ED1254605F8010BC6
:101DD0002846FEF7F9F9043810F1060F0BD805274D
:101DE000002600BF2846E655FEF7EEF9013087428F
:101DF00007F10107F6D3D4F80100651DC8F80C00FF
:101E0000002728462771FEF7DFF9033810F1050F88
:101E100009D808262846A755FEF7D6F90130311F04
:101E200001368142F6D3A878298804F1080588F89C
:101E300004002846A8F80210E771FEF7C5F9083833
:101E400010F10A0F0BD81027002600BF2846E655D0
:101E5000FEF7BAF90130F91F01378142F6D328683D
:101E60006968C8E90601012088F80000BDE8F08132
:101E7000002088F80000BDE8F081000070470000F5
:101E8000FFF71EB870470000406A0021C185C18479
:101E9000FFF74EBC81B090F83E10222921D1836813
:101EA0000246B3F5805F09D152F8281F52F8183C5A
:101EB000002B3FD003685B680AE000BF52F8281F80
:101EC00013B90369002BF5D003685B6803F07F0347
:101ED0000B70116801311160C18D01390A04C1858F
:101EE00002D001B0704700BF0168CA6822F020022A
:101EF000CA60CA6822F48072CA604A6922F001028C
:101F00004A61202280F83E20026B012A1AD1002269
:101F10000263CB6823F01003CB600B68DB0605D5AA
:101F200000920A680092496800910099818D01B081
:101F3000FFF7FCBB026852686FF35F2221F8022BA7
:101F40008162C9E701B0FFF70FBE000040F2281020
:101F5000C2F20000FFF7EEBBFEE7000094B0FEF710
:101F6000BDFF00240120CDE90F44CDE90D440A90C6
:101F70000E904FF4E0104FF48031022513900AA820
:101F80000494CDE90244CDE90B14CDE91151FFF7DA
:101F9000DDF928B1EFF3108072B600BFFEE700BF95
:101FA0000F20CDE905054FF48060CDE9080405A8B0
:101FB00002210794FFF7C2F820B1EFF3108072B648
:101FC000FEE700BF0224002601A801940396FFF754
:101FD0002FF828B1EFF3108072B600BFFEE700BF04
:101FE00041F21807C4F20207386841F2000940F0D4
:101FF000100038603868C4F2010900F010000A903F
:102000000A9838684FF4005140F020003860386872
:10201000002200F020000A900A9838684FF400551A
:1020200040F004003860386800F004000A900A9814
:102030004846FEF739FF0A950AAD4FF001084846B9
:102040002946CDE90B860D94FEF718FE10200A9064
:102050000020C1F21100CDE90B04A9F5006029466A
:10206000FEF70CFE0A2000210022FEF7A5FF0A2041
:10207000FEF78EFF57F8040C002140F0010047F8EE
:10208000040C57F8040C002200F001000A900A9892
:102090000B20FEF791FF0B20FEF77AFF40F228108D
:1020A00009F52051C2F200000C234FF4E13280E820
:1020B0004600C0E90366C0E90536C661FFF772FC59
:1020C00020B1EFF3108072B6FEE700BF40F270055A
:1020D000C2F2000509F5A051284640F8441F00212E
:1020E0004FF4602280F80C800175C261C0E90111D3
:1020F000C0F81080FEF73AFA20B1EFF3108072B604
:10210000FEE700BF0120CDE90A00072005F14404E5
:102110000C900AA92046FEF75DF928B1EFF3108074
:1021200072B600BFFEE700BF40F2281005F12001A3
:10213000C2F200001222FFF7EBFC05F10801204675
:102140000122FEF713FB4CF6CD4844F6D359CCF6EA
:10215000CC48C1F262094FF0300A4FF0200B00BFAB
:10216000A86885F810B0A0FB0812D108A1FB0823CD
:1021700048F21F52C5F2EB12A0FB02267209A2FB25
:102180000867A0FB096401EB8106A0EB460040F064
:1021900030002875D80800EB8000A1EB400040F02B
:1021A0003000E874F80800EB8000A2EB400040F03B
:1021B0003000A8740AEB9410687400F001F8CFE7BF
:1021C000B0B540F27005C2F20005287888B940F237
:1021D000281005F11001C2F2000005224FF47A73B5
:1021E000FFF7E0FC6420FEF71FFD2878002800F0D0
:1021F0008280297B40F200004D29C2F2000009D103
:10220000697B4F2905D1A97B562902D1E97B4C294D
:102210004ED0297B472921D1697B502905D1A97B43
:102220004F2902D1E97B532942D0297B472915D177
:10223000697B562909D1A97B452902D1E97B4C2923
:1022400036D0297B472909D1697B532905D1A97B40
:10225000542902D1E97B54292AD0297B52290CD157
:10226000697B452908D1A97B532905D1E97B5329ED
:1022700002D101211BE000BF297B53290BD1697BCF
:10228000452907D1A97B542904D1E97B542901D1DF
:1022900002210CE0297B542958D1697B4F2955D163
:1022A000A97B472952D1E97B47294FD10321697086
:1022B0000278E96885F832202A79C5F8331085F864
:1022C0003920D5E906236988C5F83A208278407814
:1022D000A5F8371085F8430040F2281005F13201C7
:1022E00085F84220C2F200001222C5F83E30FFF706
:1022F0002BFD00202870687841F200040128C4F208
:10230000010405D002280CD0032813D00120B0BD51
:1023100020464FF400510122FEF7C6FD68780228DE
:10232000F2D120464FF400510022FEF7BDFD68783F
:102330000328EBD120464FF40051FEF7ADFD4FF4DA
:10234000AF70FEF771FC0120B0BD00BF017885F8C9
:10235000321045F24E51C4F64C41ADE70102000087
:102360000000000000000102030406070809000045
:1023700000000102030402030405060708090A0B12
:102380000C0D0E0F10100000A82300080000002004
:102390001000000028010008B823000810000020E9
:1023A000600700004401000802030600010000006D
:0823B000100000000024F400FD
:04000005080000ED02
:00000001FF
